:020000040800F2
:10000000A0180020B51A0008750200087702000841
:100010007B0200087F020008830200080000000045
:10002000000000000000000000000000870200083F
:1000300089020008000000008B020008112B000854
:10004000CF1A0008CF1A0008CF1A0008CF1A0008EC
:10005000CF1A0008CF1A0008CF1A00088D02000836
:10006000CF1A0008CF1A0008CF1A0008CF1A0008CC
:10007000CF1A0008CF1A0008CF1A0008CF1B0008BB
:10008000CF1A0008CF1A0008CF1A0008CF1A0008AC
:10009000CF1A0008CF1A0008CF1A0008CF1A00089C
:1000A000CF1A0008CF1A0008CF1A0008CF1A00088C
:1000B000CF1A0008CF1A0008CF1A0008CF1A00087C
:1000C000CF1A0008CF1A0008CF1A0008CF1A00086C
:1000D000CF1A0008851B00080B1C0008CF1A000867
:1000E000CF1A0008CF1A0008CF1A0008000000003D
:1000F0000000000000000000000000000000000000
:100100000000000000000000CF1A0008CF1A00080D
:10011000CF1A0008CF1A0008CF1A0008CF1A00081B
:10012000CF1A0008CF1A0008CF1A0008CF1A00080B
:10013000CF1A0008CF1A0008CF1A0008CF1A0008FB
:10014000CF1A0008CF1A0008CF1A0008CF1A0008EB
:10015000DFF80CD002F022FD00480047250200081D
:10016000A018002010B53848007820B1012803D02D
:1001700002281DD101E01CE01BE0344890F800018A
:1001800040B1324890F8FF1000F05EFA00202F498D
:1001900081F800012E4890F8010140B12C4890F8F8
:1001A000001100F05AFA0020294981F8010100E00D
:1001B00000BF00BF10BD10B54FF47A71254800682C
:1001C00002F0B4FC98B12448007830B9002001F066
:1001D00051FE01202049087005E0002001F030FEAA
:1001E00000201D49087002F09EFC1A49086010BDED
:1001F00010B500F0B5F972B64FF4A06000F0A4F9A4
:1002000000F0B4F900F0B8F900F0F8F900F0E9F9FD
:1002100000F0FFF900F001FA00F003FA00F0D1F964
:1002200062B610BDFFF7E4FF0CA002F0C9FC162176
:100230000AA002F050FB05E002F082FCFFF7BBFFD2
:10024000FFF790FFF8E70000000000209C0200206C
:100250008401002004000020010000206C6F636B0B
:100260002067617465776179207374617274696E57
:1002700067000000704700BFFEE700BFFEE700BF59
:10028000FEE700BFFEE770477047704710B50220D9
:1002900001F0ACFA012804D102F06DFA022001F05D
:1002A000B6FA10BD0CB5002001900090924800688D
:1002B00040F480309049086000BF8F48006800F427
:1002C000003000900198401C0190009818B90198E6
:1002D000B0F5A06FF1D18848006800F4003010B18B
:1002E0000120009001E000200090009801285CD1DE
:1002F0008248006840F010008049086008460068A5
:1003000020F0030008600846006840F00200086022
:10031000794840687849486008464068486008461F
:10032000406840F4806048600846C06A74490840EC
:100330007149C8620846C06A724908436E49C8627A
:100340000846006840F08060086000BF6A480068A6
:1003500000F000600028F9D06748406820F47C1065
:10036000654948600846406840F4E810486008461F
:10037000006840F08070086000BF5F48006800F0CF
:1003800000700028F9D05C48406820F003005A490A
:1003900048600846406840F00200486000BF564888
:1003A000406800F00C000828F9D10CBD10B5FFF72B
:1003B00079FF10BD10B55048006840F001004E496B
:1003C000086008464068504908404B494860084664
:1003D00000684E490840484908600846006820F413
:1003E000802008600846406820F4FE004860084607
:1003F000006820F0A05008604FF47F008860002063
:10040000C862FFF7D3FF4FF000604149086010BD9C
:10041000F0B5002100200023002400220025002642
:10042000354F7F6807F00C0121B1042908D0082955
:100430004BD10BE0374FDFF8E0C0CCF800704AE05A
:10044000364FDFF8D4C0CCF8007044E02A4F7F6804
:1004500007F47010284F7F6807F48033800C0D2854
:1004600001D0801C00E0062033B92D4F4743DFF850
:10047000A8C0CCF8007027E01F4FFF6A07F4803453
:100480001D4FFF6A07F00F077A1C44B9234FB7FBD3
:10049000F2F74743DFF880C0CCF8007014E0164F45
:1004A000FF6AC7F303177D1C134FFF6AC7F30327C7
:1004B000BE1C1A4FB7FBF5F77743B7FBF2F747437C
:1004C000DFF854C0CCF8007005E0124FDFF848C0E8
:1004D000CCF8007000BF00BF074F7F68C7F3031759
:1004E000DFF840C01CF807100B4F3F68CF40DFF823
:1004F00028C0CCF80070F0BD00100240002002407F
:1005000000F0FEFF440601000000FFF0FFFFF6FED2
:1005100008ED00E000127A000800002040787D011C
:1005200000093D000C00002010B5002807DA0A077A
:10053000140E414A00F00F031B1FD45403E00A07B6
:10054000130E3E4A135410BD10B5044600214FF05F
:10055000006000F0F6FE204600F0BCFE002010BD5A
:1005600010B501211D2000F04CFC10BD10B501217B
:10057000334800F0ACF910BD10B586B001A800F00A
:100580005FFB64210198B0FBF1F4B4F1807F00D3EC
:1005900011E024F07F40401E4FF0E02148610F2120
:1005A0004FF0FF30FFF7C0FF00204FF0E0218861DF
:1005B0000720086100BF0121881EFFF7B5FF06B0C4
:1005C00010BD10B545F2555001F054FA062001F067
:1005D00054FAFF2001F054FA01F055FA01F058FAEC
:1005E00010BD00B595B05022164901A802F0B2FA2C
:1005F000022101A801F04EFB15B000BD0EB5114A55
:10060000503207CA8DE807000121684601F04CFC12
:100610000EBD10B501F0C8FC10BD10B502F093F886
:1006200010BD1FB5074B5C330FCB8DE80F009DE865
:100630000F0002F005F91FBD18ED00E000E400E036
:1006400000023000102C000870B504460D46294603
:10065000204602F03BF8002070BD70B504460D4600
:100660002946204602F037F9002070BD10B5044637
:10067000CC48844208D10121042000F0E9FB00218C
:10068000042000F0E5FB46E0C748844208D1012180
:10069000082000F0DDFB0021082000F0D9FB3AE043
:1006A000C248844208D10121102000F0D1FB002172
:1006B000102000F0CDFB2EE0BD48844208D101217E
:1006C000202000F0C5FB0021202000F0C1FB22E02B
:1006D000B848844208D10121402000F0B9FB002134
:1006E000402000F0B5FB16E0B348844208D1012158
:1006F000802000F0ADFB0021802000F0A9FB0AE083
:10070000AE48844207D10121801500F0A1FB0021F1
:10071000A01500F09DFB10BD10B50121084600F0AA
:1007200097FB0021012000F093FB10BD2DE9F04163
:10073000024600250026002000230024002791F80F
:1007400003C00CF00F0591F803C00CF0100CBCF1C5
:10075000000F03D091F802C04CEA050591F800C0E3
:10076000BCF1000F31D0146800202BE04FF0010CD9
:100770000CFA00F3B1F800C00CEA03069E4220D147
:1007800083004FF00F0C0CFA03F7BC4305FA03FC8F
:100790004CEA040491F803C0BCF1280F06D14FF0D5
:1007A000010C0CFA00FCC2F814C00AE091F803C076
:1007B000BCF1480F05D14FF0010C0CFA00FCC2F857
:1007C00010C0401C0828D1D31460B1F800C0BCF19F
:1007D000FF0F34DD546800202EE000F1080C4FF0CC
:1007E000010808FA0CF3B1F800C00CEA03069E42B7
:1007F00021D183004FF00F0C0CFA03F7BC4305FA2C
:1008000003FC4CEA040491F803C0BCF1280F05D1A5
:1008100000F1080C08FA0CF8C2F8148091F803C033
:10082000BCF1480F07D100F1080C4FF0010808FA9D
:100830000CF8C2F81080401C0828CED35460BDE8E4
:10084000F0814FF6FF710180022181700421C17097
:1008500070470246002093680B400BB1012000E076
:10086000002070470146886880B270470246002029
:10087000D3680B400BB1012000E000207047014617
:10088000C86880B2704701617047416170470AB122
:10089000016100E041617047C16070474FF48032F0
:1008A0000A4382618161826182698269704702467E
:1008B0000020434B18684FF68073184040EA02103E
:1008C00008433F4B186070473E49C8617047F0B518
:1008D0000A46002300240021002500F00046B6F15E
:1008E000004F02D1364EF16901E0354E7168C0F318
:1008F000034583B200F44016B6F5401F08D121F03D
:1009000070612F4E766826F070662D4F7E6012E083
:1009100000F48016B6F5801F06D1032606FA05F40A
:10092000A14341F0706106E0460D360103FA06F678
:10093000B14341F0706122B1460D360103FA06F66B
:10094000314300F00046B6F1004F02D11C4EF16178
:1009500001E01B4E7160F0BD30B500228B071C0F0B
:100960000F2303FA04F2164B08338C1053F824308B
:100970009343134C08348D1044F8253023468C10D3
:1009800053F824308C07240F00FA04F423430C4C52
:1009900008348D1044F8253030BD0A49DC31086038
:1009A0007047000000080140000C014000100140A9
:1009B0000014014000180140001C014000200140CB
:1009C0000000014000002042FB48006840F00100A8
:1009D000F949086008464068F8490840F649486007
:1009E00008460068F6490840F34908600846006870
:1009F00020F4802008600846406820F4FE0048602B
:100A00000846006820F0A05008604FF47F0088601E
:100A10000020C8627047E849096821F48031E64A3D
:100A200011601146096821F480211160B0F5803F02
:100A300003D0B0F5802F0ED106E0DF49096841F4FC
:100A40008031DD4A116007E0DB49096841F4A021EB
:100A5000D94A116000E000BF00BF704710B50146E1
:100A60000022002300204A11012A02D1D24C23681F
:100A700006E0022A02D1D04C236A01E0CE4C636A20
:100A800001F01F02012494401C400CB1012000E041
:100A9000002010BD38B5002000900024002500BFC4
:100AA0003120FFF7DBFF05460098401C00900098BE
:100AB000B0F5A06F01D0002DF2D03120FFF7CEFFAE
:100AC00008B1012400E00024204638BD0146002082
:100AD000B94A106820F0F80040EAC1001060704781
:100AE000B8490860704702460020B34B586820F4AC
:100AF000741042EA01031843AF4B58607047B14984
:100B00000866704702460020AB4BD86AAE4B1840CF
:100B100042EA01031843A84BD862704701460020FF
:100B2000A54AD06A20F0F0000843D0627047014621
:100B30000020A14AD06A20F470600843D062704758
:100B4000A04988667047014600209B4AD06A20F47D
:100B500070400843D06270479A4908677047014661
:100B60000020954A506820F0030008435060704709
:100B70009148406800F00C007047014600208E4A02
:100B8000506820F0F0000843506070470146002094
:100B9000894A506820F4E06008435060704701467D
:100BA0000020854A506820F4605040EAC10050603F
:100BB000704729B1804A527A02437F4B5A7204E04F
:100BC0007D4A527A82437C4B5A7270477D49D831B4
:100BD0000860704701460020774A506820F4404082
:100BE0000843506070477949086070477749091D8C
:100BF000086070470021704A203211706E4A82F8F6
:100C00002010012802D004280AD104E001216A4AF8
:100C10002032117005E00521674A2032117000E092
:100C200000BF00BF70476A49086070476249096A9F
:100C30000143614A11627047654944390860704751
:100C40002DE9F04100210022002500230026002488
:100C500000278C46DFF86081D8F8048008F00C018A
:100C600021B1042907D0082959D109E0DFF86481AE
:100C7000C0F8008058E0DFF86081C0F8008053E0E1
:100C8000DFF83481D8F8048008F47012DFF8288186
:100C9000D8F8048008F48035920C0D2A01D0921CFB
:100CA00000E0062235B9DFF8348102FB08F8C0F80D
:100CB000008033E0DFF80081D8F82C8008F480361B
:100CC000DFF8F480D8F82C8008F00F0808F1010450
:100CD00046B9DFF80481B8FBF4F808FB02F8C0F865
:100CE00000801BE0DFF8D080D8F82C80C8F3031810
:100CF00008F10107DFF8C080D8F82C80C8F303287A
:100D000008F1020CDFF8D080B8FBF7F808FB0CF80C
:100D1000B8FBF4F808FB02F8C0F8008004E0DFF844
:100D2000B480C0F8008000BF00BFDFF88C80D8F826
:100D3000048008F0F0010909DFF8A48018F80130F8
:100D4000D0F8008028FA03F8C0F80480DFF8688043
:100D5000D8F8048008F4E061090ADFF8848018F804
:100D60000130D0F8048028FA03F8C0F80880DFF8D2
:100D70004880D8F8048008F46051C90ADFF8608020
:100D800018F80130D0F8048028FA03F8C0F80C8075
:100D9000DFF82480D8F8048008F44041890BDFF89C
:100DA000448018F80130D0F80C80B8FBF3F8C0F894
:100DB0001080BDE8F0810000001002400000FFF04C
:100DC000FFFFF6FE00004242F0FFFEFFC405424274
:100DD0008004424200127A0040787D0100093D0003
:100DE0001C0000202C00002029B1354A5269024322
:100DF000334B5A6104E0324A52698243304B5A61A4
:100E0000704729B12E4A926902432D4B9A6104E042
:100E10002B4A926982432A4B9A61704729B1284A2A
:100E2000D2690243264BDA6104E0254AD269824343
:100E3000234BDA61704729B1214A926A0243204B61
:100E40009A6204E01E4A926A82431D4B9A6270477E
:100E500029B11B4AD2680243194BDA6004E0184AF0
:100E6000D2688243164BDA60704729B1144A12697E
:100E70000243134B1A6104E0114A12698243104B7A
:100E80001A6170470F49086070470F49C86470477E
:100E90000B49C87170470A48406A40F080700849A1
:100EA0004862704701460020054A92680A400AB12C
:100EB000012000E00020704701498872704700005F
:100EC00000100240400442420000424210B5044675
:100ED000FB48844209D101218803FFF7B9FF0021B3
:100EE0004FF48040FFF7B4FF32E0F648844209D166
:100EF00001214804FFF7B9FF00214FF40030FFF74C
:100F0000B4FF25E0F048844209D101218804FFF7AD
:100F1000ACFF00214FF48020FFF7A7FF18E0EB485B
:100F2000844209D10121C804FFF79FFF00214FF43B
:100F30000020FFF79AFF0BE0E548844208D1012129
:100F40000805FFF792FF00214FF48010FFF78DFF97
:100F500010BD2DE9F04786B005460E460024A24696
:100F600000BFA1460027B08900B100BF2F462C8AE0
:100F70004CF6FF700440F08804432C82AC894EF696
:100F8000F3100440B0883189084371890843044351
:100F9000AC81AC8A4FF6FF400440B0890443AC8278
:100FA00001A8FFF74DFEC648874202D1DDF810A028
:100FB00001E0DDF80CA0A88900F4004040B10AEB84
:100FC000CA0000EB0A1031684900B0FBF1F807E0F5
:100FD0000AEBCA0000EB0A1031688900B0FBF1F897
:100FE0006420B8FBF0F004012009642101FB1089A2
:100FF000A88900F4004040B1322000EBC900B0FBEA
:10100000F1F000F00700044308E0322000EB091083
:101010006421B0FBF1F000F00F0004432C8106B016
:10102000BDE8F0874FF41651016000218180C18036
:1010300001810C21418100218181704710B5024658
:101040000020108A4FF2FF0318400B884C8823437E
:101050008C882343CC8823431843108210BD002181
:10106000018041808180C180704721B1828942F432
:101070000052828104E082894DF6FF731A4082811A
:101080007047F0B50346002400260025002040F6F6
:101090006A17B94200D100BF1846C1F3421401F0EB
:1010A0001F06012707FA06F5012C01D10C3004E0D8
:1010B000022C01D1103000E014301AB107682F4320
:1010C000076002E00768AF430760F0BD1AB1838A8A
:1010D0000B43838202E0838A8B4383827047028AB8
:1010E0004FF6F0731A400282028A0A430282704766
:1010F00082894FF2FF731A40828182890A4382817A
:10110000704721B1828942F00202828104E0828923
:101110004FF6FD731A4082817047028A4FF6DF73E3
:101120001A400282028A0A430282704721B1028A6F
:1011300042F48042028204E0028A4BF6FF731A40B6
:1011400002827047C1F30802828070470146888896
:10115000C0F308007047818941F001018181704727
:10116000028BD2B20283028B42EA012202837047D1
:10117000028B02F47F420283028B0A430283704790
:1011800021B1828A42F02002828204E0828A4FF6F4
:10119000DF731A408282704721B1828A42F01002C6
:1011A000828204E0828A4FF6EF731A40828270478F
:1011B00021B1828A42F00802828204E0828A4FF6DC
:1011C000F7731A408282704721B1828942F400424B
:1011D000828103E08289C2F30E028281704721B1CD
:1011E000828A42F40062828204E0828A4FF2FF73B4
:1011F0001A4082827047828A4FF6FB731A408282BD
:10120000828A0A438282704721B1828A42F00202B6
:10121000828204E0828A4FF6FD731A408282704710
:1012200002460020B1F5007F00D100BF13880B40BB
:101230000BB1012000E00020704701F40072B2F50C
:10124000007F00D100BFCA430280704770B50246DC
:10125000002400230025002040F66A16B14200D188
:1012600000BFC1F3421501F01F03012606FA03F384
:10127000012D02D19689334006E0022D02D1168A53
:10128000334001E0968A33400C12012606FA04F43A
:101290001688344013B10CB1012000E0002070BD6D
:1012A00010B50022002340F66A14A14200D100BF0D
:1012B0000A1201249440A3B2DC43048010BD000054
:1012C000003801400044004000480040004C00400D
:1012D0000050004031490143314A1160704770B5F8
:1012E000002100230F22C47804B32D4C246804F499
:1012F000E064C4F5E064210AC1F10403CA40447803
:1013000004FA03F18478144021430901254C06783E
:10131000A155047804F01F050124AC4005786D1137
:10132000AD0005F1E025C5F8004109E0047804F0BE
:101330001F050124AC401C4D0678761145F8264067
:1013400070BD1A4A0A400243154B1B1F1A607047B2
:1013500039B1134A121D12680243114B1B1D1A604A
:1013600006E00F4A121D126882430D4B1B1D1A60C6
:101370007047042808D14FF0E021096941F00401C9
:101380004FF0E022116107E04FF0E021096921F000
:1013900004014FF0E0221161704700000000FA05DF
:1013A0000CED00E000E400E080E100E080FFFF1FC2
:1013B00010B50446CE48844208D101218014FFF7BD
:1013C00047FD0021A014FFF743FD16E0C948844201
:1013D00008D101210014FFF748FD00212014FFF778
:1013E00044FD0AE0C448844207D10121C013FFF73D
:1013F0003CFD0021E013FFF738FD10BD10B50022C1
:10140000028802F441520B884C8823438C88234382
:10141000CC8823430C8923434C8923438C89234361
:10142000CC8923431A430280838B4FF2FF742340FD
:1014300083830B8A038210BD2DE9F04F85B00646E9
:101440000C464FF0000A02274FF000084FF0010B46
:101450000025A946B08B4FF240010840B08302201E
:101460003084B6F81CA0A068022801D100BF59E062
:10147000A08810B94FF0010B01E04FF0020B9D481E
:10148000864202D14FF4003501E04FF480259B489D
:10149000C06A2840C8B19948C06AC0F30335052D19
:1014A00003D90F2D01D2AD1C02E00F2D00D1142560
:1014B0009248C06AC0F3031000F101099048B0FBE4
:1014C000F9F068434FEA400904E06846FFF7B8FBCB
:1014D000DDF80090E088B0F5007F0AD14FEA1920CE
:1014E00000EB80004000A168B0FBF1F0401D85B228
:1014F0000BE04FEA4B10B9FBF0F000EB800040002E
:10150000A168B0FBF1F0401D85B20A20B5FBF0F5F3
:1015100005F00108A5EB0800C0F34F074FF6FF7078
:1015200000EA0828022F01DBFF2F02DD02274FF01F
:101530000008E08840EA080038433084A088A18988
:101540000843618808432188084340F4006040EA6A
:101550000A0AA6F81CA005B0BDE8F08F00210180A2
:1015600041808180C180018141818181C1810721C8
:10157000018270470021018041808180C180022169
:10158000816000218181704721B1028842F04002D0
:10159000028004E002884FF6BF731A400280704751
:1015A00021B1828B42F48062828304E0828B4FF609
:1015B000FF331A408283704730B5002400230C119A
:1015C0000125A540ABB21AB185881D43858002E094
:1015D00085889D43858030BD1AB183880B43838005
:1015E00002E083888B438380704781817047014686
:1015F000888970474FF6FF62914204D0028842F416
:101600008072028004E002884FF6FF631A40028075
:10161000704721B1828842F00402828004E082880F
:101620004FF6FB731A408280704702884FF2FF73B7
:101630001A40028002880A4302807047018841F400
:1016400080510180704721B1028842F4005202802B
:1016500004E002884DF6FF731A400280704702468C
:101660000020012901D0108B00E0908A70470146CC
:10167000088A7047B1F5804F04D1028842F4804255
:10168000028004E002884BF6FF731A400280704724
:101690000246002013890B400BB1012000E000201E
:1016A0007047CA4302817047F0B50246002000240B
:1016B0000023002501F00F070126BE40B4B20B1134
:1016C00001269E40B3B2968806EA03051689264095
:1016D00016B10DB1012000E00020F0BD10B50022D0
:1016E00001F00F040123A3409AB2D343038110BD3C
:1016F0000030014000380040003C00400010024033
:1017000040787D01002044490860091D0860091DDA
:101710000860091D086041483F491431086070475E
:1017200000213D498279002A3AD00A4612680368AE
:101730009A430B461A600A1D126803689A430B1DF0
:101740001A60027911440A6803681A430A60324A2F
:101750000832126803689A432F4B08331A601A1D27
:10176000126803689A432C4B0C331A604279102A92
:101770000ED11A1F126803681A43274B08331A60E8
:101780001A1D126803681A43234B0C331A600DE0CC
:101790002149427911440A6803681A430A6005E046
:1017A000027911440A6803689A430A60704700216D
:1017B000016001710C21417100218171704716494E
:1017C000103109680143144A103211607047014614
:1017D0000020114A143212680A400AB1012000E0C8
:1017E000002070470C491431086070470146002002
:1017F0000022094B1B6803EA0102074B14331B68E4
:101800000B4013B10AB1012000E0002070470249EB
:10181000143108607047000000040140FFFF0F0012
:1018200001684FF6FE7211400160002101604160C5
:101830008160C1608D49884208D18C490839496866
:1018400041F00F01894A083A51608AE08749143112
:10185000884208D185490839496841F0F001834A36
:10186000083A51607DE081492831884208D17F499A
:101870000839496841F470617C4A083A516070E067
:101880007A493C31884208D178490839496841F49D
:101890007041764A083A516063E074495031884299
:1018A00008D172490839496841F470216F4A083AF1
:1018B000516056E06D496431884208D16B4908395E
:1018C000496841F47001694A083A516049E0674942
:1018D0007831884208D165490839496841F070611A
:1018E000624A083A51603CE06149884206D1011FD2
:1018F000096841F00F01021F116032E05C491431A8
:10190000884208D15A49091F096841F0F001584A34
:10191000121F116025E056492831884208D15449E8
:10192000091F096841F47061514A121F116018E0E3
:101930004F493C31884208D14D49091F096841F49B
:1019400070414B4A121F11600BE0494950318842E7
:1019500007D14749091F096841F47021444A121F01
:101960001160704710B50022026847F6F0739A4381
:101970000C6A8B6823430C6923434C6923438C69AD
:101980002343CC6923434C6A23438C6A23431A4381
:101990000260CB6843600B6883604B68C36010BD16
:1019A0000021016041608160C1600161416181612C
:1019B000C161016241628162704721B1026842F0F7
:1019C0000102026004E002684FF6FE731A400260F2
:1019D00070471AB103680B43036002E003688B434E
:1019E00003607047416070470146486880B27047A5
:1019F00001460020002201F080531BB11C4B083B24
:101A00001A6802E0194B083B1A6802EA01030BB19D
:101A1000012000E00020704700F0805119B1144906
:101A2000091F086002E01149083948607047014603
:101A30000020002201F080531BB10D4B083B1A68B7
:101A400002E00A4B083B1A6802EA01030BB10120CD
:101A500000E00020704700F0805119B10449091FCF
:101A6000086002E0014908394860704708000240F8
:101A7000080402400E49086070470D4948607047ED
:101A80000B49886070474AF6AA20094908607047E8
:101A90004CF6CC4006490860704701460020044AD5
:101AA000D2680A400AB1012000E00020704700001F
:101AB000003000400648804706480047FEE7FEE742
:101AC000FEE7FEE7FEE7FEE7FEE7FEE7FEE7FEE7EE
:101AD000B503000851010008092001E0411E88B249
:101AE0000028FBDC704700B50246134603E0FFF711
:101AF000F3FF581E83B2002BF9DC00BD42F2283000
:101B000001E0411E88B20028FBDC704700B50246A8
:101B1000134603E0FFF7F2FF581E83B2002BF9DCF7
:101B200000BD0000F8B506460C461546F0B28DF82B
:101B30000000E0B28DF80100E8B28DF8020001204B
:101B40008DF803006846FFF7CAFBF8BD70B506467E
:101B50000C4620213046FFF763FB90B140F225513F
:101B60003046FFF79DFB3046FFF7F0FAC5B2AF48AD
:101B700050F8240028B1AD4850F8242029462046CA
:101B8000904770BD70B540F22441A948FFF75EFB55
:101B900098B10021A748FFF710FFA648FFF724FFE0
:101BA00004464FF47020FFF737FFFF21A148FFF7ED
:101BB00019FF01219F48FFF700FF9D480588001D80
:101BC0000588C4F1FF019C4800F008FF70BD10B506
:101BD0004FF40030FFF73FFF4FF40020FFF73BFFCB
:101BE00000219448FFF7E9FE9248FFF7FDFE044606
:101BF000FF219048FFF7F6FE01218E48FFF7DDFE3A
:101C000021468D4800F0EAFE10BD10B502218B4838
:101C1000FFF79CFF10BD70B504460D4629462046CF
:101C2000FFF790FA00BF80212046FFF7F9FA00285D
:101C3000F9D070BD70B505460C46A1B22846FFF735
:101C400081FA00BF80212846FFF7EAFA0028F9D080
:101C500070BD2DE9F04107460D461646002405E00B
:101C6000295D3846FFF7D7FF601CC4B2B442F7DBEA
:101C7000BDE8F08170B504460D46E1B26F48FFF74C
:101C800061FA00BF80216D48FFF7CAFA0028F9D039
:101C9000204670BD70B59CB005460E46002400BFBE
:101CA000BDE004EB840005EBC001282201A800F090
:101CB00051FF5F490298884204D101210898FFF73B
:101CC000A0F803E001210898FFF7A8F89DF8041098
:101CD000564A0A9842F82100BDF81000ADF8680095
:101CE00018208DF86B0003208DF86A001AA903985C
:101CF000FEF71CFDBDF81800ADF8680048208DF80F
:101D00006B001AA90598FEF711FD079816900020A0
:101D1000ADF85C00ADF85E00ADF86000ADF86400B1
:101D20000C20ADF8620016A90298FFF712F90A9884
:101D3000B8B1012240F224410298FFF7A2F99DF8C0
:101D400024008DF86C0001208DF86D008DF86E0078
:101D50008DF86F001BA8FFF7C2FA10210298FFF759
:101D60006CFA33490298884253D101210846FFF7A3
:101D70003BF83048FFF754FD2D48001D0B902E48CE
:101D80000C9000200D90FF200E9000200F908020DE
:101D90001090002011901290202013900020149099
:101DA00015900BA92348FFF7DDFD012202212148F0
:101DB000FFF70FFE012208211E481430FFF709FE2D
:101DC000012240211A48FFF781F901211948FFF744
:101DD000F4FD4FF4A060FFF77DFA0F208DF86C0042
:101DE00001208DF86D0000208DF86E0001208DF827
:101DF0006F001BA8FFF773FA0E208DF86C0001200E
:101E00008DF86D008DF86E008DF86F001BA8FFF740
:101E100066FA01210298FFF728F9601C84B2B442E7
:101E2000FFF63FAF00201CB070BD00003C0000205A
:101E300000380140580002405C000020004400408F
:101E400010B5044604EB4400564901EB80000089BC
:101E500070B104EB44020B4603EB8202118904EBE0
:101E6000440203EB82025068FEF70DFD002010BD16
:101E70000120FCE710B5044604EB4400494901EB9E
:101E80008000008970B104EB44020B4603EB820230
:101E9000118904EB440203EB82025068FEF7F5FC63
:101EA000002010BD0120FCE77FB505460E46182135
:101EB0003C4800F068FE00242FE004EB440005EBF2
:101EC0008002D2E900109268CDE9010200919DF8EC
:101ED000000000EB4000334901EB80009DE80E005C
:101EE0000EC0BDF80800ADF80C0010208DF80F00F2
:101EF00003208DF80E0003A90198FEF717FC9DF84A
:101F00000A0020B99DF80000FFF7B4FF03E09DF838
:101F10000000FFF795FF601CC4B2B442CDDB002087
:101F200004B070BD10B5044604EB44021D4B03EB36
:101F30008202118904EB440203EB82025068FEF72F
:101F400095FC08B9012010BD0020FCE710B504463F
:101F500004EB4400134901EB8000008900B32046E4
:101F6000FFF7E0FF68B104EB44020E4B03EB820283
:101F7000118904EB440203EB82025068FEF783FCF4
:101F80000CE004EB4402074B03EB8202118904EBE3
:101F9000440203EB82025068FEF777FC002010BD7C
:101FA0000020FCE75C01002000B587B00121080398
:101FB000FEF727FFE020ADF8180018208DF81B0071
:101FC00003208DF81A0006A93048FEF7AFFB002069
:101FD000ADF804004FF48270ADF806000020ADF8B3
:101FE0000800ADF80A00ADF80C004FF40070ADF831
:101FF0000E001820ADF810000020ADF812000720E8
:10200000ADF8140001A92248FFF7F8F90121204892
:10201000FFF7BAFA07B000BD10B504461C480088A7
:102020004FF6C77108401A490880084600882043C7
:10203000088001211648FFF7A7FA10BD70B50546C4
:10204000002405E0601CC4B2C82C01DD002070BD76
:1020500002210F48FFF71CFB0028F3D029460C484B
:10206000FFF7C3FA002405E0601CC4B2C82C01DDF0
:102070000020ECE701210648FFF70AFB0028F3D017
:102080000348FFF7B4FAC0B2E1E7000000080140DE
:10209000003001401FB501211820FEF7B2FE1020CC
:1020A0008DF80F0003208DF80E001020ADF80C0005
:1020B00003A9F848FEF73AFB1021F648FEF7E3FBC8
:1020C0002020ADF80C0003A9F248FEF72FFB0120F9
:1020D000ADF80C0003A9F048FEF728FB0420ADF88A
:1020E0000C0003A9EC48FEF721FB0220ADF80C0020
:1020F00028208DF80F0003A9E748FEF717FB012100
:102100000846FEF729FC07208DF8080000208DF80E
:1021100009008DF80A0001208DF80B0002A8FFF7D6
:10212000DEF80220009000208DF8040008208DF8D1
:10213000050001208DF806006846FFF7F1FA02203D
:10214000FFF765FB1FBD70B504462046FFF776FF1D
:102150000546284670BD014605E0002001E0421C0E
:10216000D0B26428FBDB0A00A1F10101F5D1704770
:1021700010B50421C848FEF788FBC820FFF7EBFF25
:102180000421C548FEF77FFB4FF4FA70FFF7E3FF29
:1021900010BD10B5044614B1012C0AD104E0102181
:1021A000BC48FEF772FB05E01021BA48FEF76BFB56
:1021B00000E000BF00BF10BD10B5044614B1012CF3
:1021C00012D108E02021B348FEF75FFB0121B2489D
:1021D000FEF759FB09E02021AE48FEF754FB012130
:1021E000AD48FEF752FB00E000BF00BF10BD016824
:1021F00011B1AA4A01681160416811B1A74A41684A
:102200005160816811B1A54A81689160C16811B1BE
:10221000A24AC168D160704770B504460D469F4818
:1022200081680020884744F080009C4A11688847F4
:102230009A4801682846884798488168012088475D
:1022400070BD70B50446954881680020884704F049
:102250007F00924A1168884790484168FF2088476C
:1022600005468E48816801208847284670BD70B5B4
:1022700005460120FFF7E5FF044604F0F8042C436F
:1022800021460120FFF7C8FF70BD70B5054601204B
:10229000FFF7D7FF044604F07F042C4321460120BA
:1022A000FFF7BAFF70BD10B57D4890F845100620C5
:1022B000FFF7B2FF7A4890F846100720FFF7ACFF0F
:1022C000774890F847100820FFF7A6FF10BD10B51B
:1022D000044687214D20FFF79FFF7248015D0920CA
:1022E000FFF79AFF10BD70B504463120FFF7A9FF34
:1022F000054605F0F80040EA040529463120FFF7BD
:102300008BFF70BD70B504460320FFF7ECFF1E2065
:10231000FFF797FF0546284664F31F10C5B229460C
:102320001E20FFF779FF70BD70B504461D20FFF732
:1023300088FF054605F0F10040EA4400C5B2294691
:102340001D20FFF769FF70BD70B504461E20FFF722
:1023500078FF054605F0FB0040EA8400C5B2294637
:102360001E20FFF759FF70BD70B504461D20FFF712
:1023700068FF0546284664F31F10C5B229461D2094
:10238000FFF74AFF70BD70B504461D20FFF759FFE7
:10239000054605F0FE0040EA040529461D20FFF72A
:1023A0003BFF70BD38B504461E20FFF74AFF8DF88D
:1023B00000001F20FFF745FF8DF801009DF8000089
:1023C00000F0FC00032101EA14210843C0B28DF89B
:1023D0000000E0B28DF801009DF800101E20FFF70C
:1023E0001BFF9DF801101F20FFF716FF38BD10B529
:1023F000044621462220FFF70FFF10BD38B50446E2
:10240000200A8DF80000E0B28DF801009DF8001060
:102410002020FFF701FF9DF801102120FFF7FCFEAF
:1024200038BD70B504462620FFF70BFF054605F0C2
:10243000F70040EAC400C5B229462620FFF7ECFEAB
:1024400070BD10B54220FFF7FCFE0446204610BDCB
:1024500010B50120FFF70BFF9F211120FFF7DCFED5
:10246000FF212420FFF7D8FE00214020FFF7D4FEF3
:1024700000214120FFF7D0FE0520FFF7F8FE0748B6
:10248000C1680020884710BD70B50446052C0BDCE0
:1024900020460AE000100140000C014074010020B9
:1024A000842C00087C2C0008052004460120FFF73E
:1024B000DEFE022C01D0032C04D100212620FFF7E0
:1024C000ABFE03E008212620FFF7A6FE022C03D076
:1024D000042C01D0052C12D102213620FFF79CFEDE
:1024E0007F213A20FFF798FE3120FFF7AAFE05462C
:1024F00045F0010529463120FFF78EFE15E0032146
:102500003620FFF789FE3120FFF79BFE054625F0B8
:10251000010529463120FFF77FFE40212F20FFF7DC
:102520007BFE00213020FFF777FE04EB4401C04A18
:10253000505CFFF719FF04EB4401BD4A1144487891
:10254000FFF7E0FE04EB4401B94A11448878FFF735
:10255000EBFE70BD10B50020FFF789FE8020FFF76D
:1025600094FE0120FFF783FE00214020FFF754FE78
:1025700000214120FFF750FEFFF795FE0720FFF7EF
:10258000A6FE0420FFF780FF0120FFF7DDFE0020FC
:10259000FFF7F9FEFF20FFF72AFF40F2FF30FFF7B9
:1025A00001FF0120FFF73DFFFFF752FF10BD70B59F
:1025B00004460D469F48C168012088470120FFF767
:1025C00056FE00212420FFF727FEF7211120FFF7F8
:1025D00023FEE9B22220FFF71FFE00210E20FFF7A5
:1025E0001BFE00210D20FFF717FE92488168002096
:1025F00088479048016880208847002606E02078B8
:102600008C4A11688847641C701C86B2AE42F6DBA7
:10261000884881680120884740210846FFF7FCFD73
:1026200000214120FFF7F8FD0320FFF720FE70BDD9
:1026300010B50120FFF71BFEFA211120FFF7ECFD7A
:1026400080214020FFF7E8FD00214120FFF7E4FD55
:102650000720FFF70CFE7748C1680020884710BDAF
:1026600010B50120FFF703FEFF211120FFF7D4FD75
:1026700000214020FFF7D0FD00214120FFF7CCFDD5
:102680000020FFF7F4FD10BD70B505460E46144658
:102690000020694981F8020100F045FA6649C1F855
:1026A000040131462846FFF782FF08E06249D1F86D
:1026B0000401214600F03AFA08B1012070BD5E48DD
:1026C00090F802010028F1D00020F7E72DE9F0474B
:1026D00006460C46B146FF2C09DC4FF4FA6221464F
:1026E0004846FFF7D1FF50B30120BDE8F087FF2037
:1026F00094FBF0F0C7B2FF2094FBF0F100FB114017
:1027000000F0FF0800250CE04FF4FA62FF21484674
:10271000FFF7BAFF08B10120E7E709F1FF09681CDC
:10272000C5B2BD42F0DBC820FFF7F0F94FF4FA6202
:1027300041464846FFF7A8FF08B10120D5E7002031
:10274000D3E7704770471FB53C4B0FCB8DE80F00A8
:10275000FFF7A0FC6846FFF74AFDFFF709FDFFF70A
:10276000F9FEFFF76EFE122802D1FFF7EAFF01E043
:10277000FFF7E8FF1FBD70B500251220FFF761FDD0
:10278000044604F04000402832D11E20FFF759FDD6
:10279000064606F00400042827D100210D20FFF78B
:1027A0003BFD1320FFF74DFD234981F80001012077
:1027B00081F801011F488168002088471D48016891
:1027C0000020884700BF07E01A484168FF2088477B
:1027D00019494855681CC5B2174890F80001A8422D
:1027E000F2DC1448816801208847FFF731FE19E0C8
:1027F00004F00800082806D101200F4981F80201E1
:10280000FFF726FE0EE004F00400042808D104F0CF
:10281000010010B1FFF71CFE04E0FFF721FF01E00B
:10282000FFF716FEFF211220FFF7F6FC70BD000037
:10283000E42C00087401002084010020F82C00081A
:102840001FB582B06C4802A91EC91EC0BDF8140095
:10285000ADF8040010208DF8070003208DF8060065
:1028600001A90498FDF762FFBDF814100498FEF763
:102870000AF8BDF80C00ADF8040001A90298FDF7B4
:1028800055FFBDF80C100298FDF7FDFF06B010BD16
:1028900010B5594A91881068FDF7F7FF4FF4A07002
:1028A000FFF734F9544A91881068FDF7ECFF10BD2A
:1028B00010B5514A91899068FDF7E7FF4FF4A07079
:1028C000FFF724F94C4A91899068FDF7DCFF10BDB1
:1028D00002460020704770B504460D462A46214640
:1028E0004648FFF7B6F970BD70B50346444890F806
:1028F0000001012801D1002070BD42480068FE2877
:1029000067DA404805680068401C3E4E30603C482D
:1029100043553046006802285EDB3B480078A0B98A
:1029200030460068401E364D285CA52809D1304647
:102930000068801E285CA52803D10120324D287034
:102940004AE000202F4D286046E02F4800780128FB
:1029500042D12C480068032804D1294880782B4DA7
:10296000287039E02748056828480078801C85428F
:1029700032D10022002106E0214D881C285C104441
:1029800082B2481CC1B221480078801E8842F3DC24
:102990001C480068801E1A4D2C5C1A480068401EB6
:1029A000285C00EB042084B2A24207D115480078CD
:1029B00085F8FF00012085F8000104E01448006854
:1029C000401C134D286000200E4D28600E4D2870CD
:1029D00002E000200B4D286000208DE770B5054611
:1029E0000E46002400BF03E0285DFFF77DFF641C56
:1029F000B442F9DB002070BD8C0200200038014099
:102A00009C020020480000204C0000204D000020C7
:102A1000440000200FB470B505460E46002400BFE8
:102A200022E004EB8400384951F83000D8B9374827
:102A30000068284404EB8401334A42F8310004EB77
:102A40008400114601EBC000466004EB840102EBF8
:102A5000C10101F10800202206A900F07BF8012045
:102A600070BC5DF814FB641C202CDADB0020F7E757
:102A700070B58EB005460E4614460694182208A975
:102A8000684600F067F831462846DDE90623FFF77F
:102A9000C1FF0EB070BD2DE9FF41054600241B4863
:102AA000056000BF2CE004EB8400174951F83000AA
:102AB00028B304EB840051F83000A8421FD204EB85
:102AC000840001EBC000D0E907238169406A8DE8EA
:102AD0000E00039004EB84000B4901EBC00000F1F1
:102AE000080604EB840001EBC000476896E80F007D
:102AF000B847002004EB8401034A42F83100641C0B
:102B0000202CD0DBBDE8FF81A00300205000002076
:102B100010B50E4800680A300C4908600846006885
:102B2000FFF7B9FF10BD0948006870470246074823
:102B30000068801A884201D9012070470020FCE714
:102B40004AF6AA200249086070470000540000209D
:102B50000030004040EA01039B0703D009E008C9A8
:102B6000121F08C0042AFAD203E011F8013B00F852
:102B7000013B521EF9D27047D2B201E000F8012B9E
:102B8000491EFBD270470022F6E710B513460A46ED
:102B900004461946FFF7F0FF204610BD064C074DCE
:102BA00006E0E06840F0010394E80700984710341D
:102BB000AC42F6D3FDF7D0FA082D0008282D000806
:102BC000014A024900F013B8751C000858000020A3
:102BD00002E008C8121F08C1002AFAD170477047E6
:102BE000002001E001C1121F002AFBD170472DE92E
:102BF000F04116460F460446002503E03946B0472B
:102C0000641C6D1C20780028F8D12846BDE8F081AE
:102C100001000000003801400008014000020000EF
:102C2000000801400004000000C201000040000054
:102C300025000000D12800080200000000440040E8
:102C400000080140040000000008014008000000E6
:102C500000C2010000000200260000000000000089
:102C600000000000000C0140800001000010014045
:102C70000002000000080140000100008080808305
:102C800086898C8F66800066C00067000067400000
:102C900067800067C00068000068400068800068C6
:102CA000C00069000069400069800069C0006A00D6
:102CB000006A40006A80006AC0006B00006B400040
:102CC0006B80006BC0006C00006C40006C80006C7E
:102CD000C0006D00006D40006D80006DC0006E0092
:102CE000006E4000070C01080B01090B01080802E7
:102CF00009080209070200004721000847210008CF
:102D000093210008B9210008282D000800000020A8
:102D10005C000000D02B0008842D00085C0000201F
:102D200044180000E02B0008020000000000000032
:102D300000A24A0400000000000000000102030499
:102D40000607080900000000010203040102030451
:102D50000607080902040608000000000000000041
:102D60000000000000000000000000000000000063
:102D70000000000000000000000000000000000053
:042D8000000000004F
:04000005080001519D
:00000001FF
