:020000040800F2
:10000000881C00201D2500080503000807030008C0
:100010000B0300080F030008130300080000000092
:1000200000000000000000000000000017030008AE
:1000300019030008000000001B030008AD38000889
:100040003725000837250008372500083725000820
:100050003725000837250008372500081D0300084C
:100060003725000835030008372500083725000824
:1000700037250008372500083725000837260008EF
:1000800037250008372500083725000837250008E0
:1000900037250008372500083725000837250008D0
:1000A00037250008372500083725000837250008C0
:1000B00037250008372500083725000837250008B0
:1000C00037250008372500083725000837250008A0
:1000D00037250008ED25000873260008372500089D
:1000E00037250008372500083725000800000000E4
:1000F0000000000000000000000000000000000000
:100100000000000000000000372500083725000827
:10011000372500083725000837250008372500084F
:10012000372500083725000837250008372500083F
:10013000372500083725000837250008372500082F
:10014000372500083725000837250008372500081F
:10015000DFF80CD003F016FC00480047310200081D
:10016000881C00204AF6AA205A490860704710B53A
:1001700000F04AFA72B64FF4A06000F039FA00F0CD
:1001800049FA00F04DFA00F08EFA00F07FFA00F024
:1001900095FA00F097FA00F099FA00F066FA03F089
:1001A000C9F962B610BD10B54FF47A714A480068BB
:1001B00003F08AFBA8B14948007830B9002002F06A
:1001C0008DFB01204549087005E0002002F06CFB22
:1001D00000204249087003F074FB3F490860012089
:1001E00010BD0020FCE70EB53DA207CA8DE8070050
:1001F0004EF660213D48006803F066FB38B10C21E3
:10020000684603F03BF803F05CFB384908600EBD1C
:1002100071B600BF3648006800F4E0603549084315
:10022000001D33490860BFF3408F00BF00BFFEE7E9
:1002300008B500200090FFF79AFF022269462E4879
:1002400003F0A7FABDF8000001280BD10020ADF89B
:100250000000ADF8020002226946274803F082FA46
:1002600003F050F835E0FFF79EFFFFF7BCFFFFF704
:1002700079FF002000F0B7FB03F096F91F484079A2
:10028000012810D0022815D10120ADF80000ADF8EA
:10029000020002226946184803F064FA0020174958
:1002A0004871FFF7B5FF00201449487102F0C6FFFE
:1002B000FFF7AEFF00BF00BF114890F8000140B14A
:1002C0000F4890F8FF1000F044FA00200C4981F824
:1002D0000001C8E7003000400400002000000020BA
:1002E0005A5A0AFFFFFFFF5200000458080000207E
:1002F0000CED00E00000FA05002003085C0000207F
:10030000900A0020704700BFFEE700BFFEE700BF75
:10031000FEE700BFFEE770477047704710B5022048
:1003200001F0BAFC012804D102F0FEFE022001F027
:10033000C4FC10BD10B5082001F0AEFC012804D1AA
:1003400003F02AF9082001F0B8FC10BD0CB500201C
:10035000019000909248006840F480309049086015
:1003600000BF8F48006800F4003000900198401CE6
:100370000190009818B90198B0F5A06FF1D18848A4
:10038000006800F4003010B10120009001E000206E
:100390000090009801285CD18248006840F010006D
:1003A000804908600846006820F00300086008469D
:1003B000006840F002000860794840687849486069
:1003C0000846406848600846406840F480604860DD
:1003D0000846C06A744908407149C8620846C06A44
:1003E000724908436E49C8620846006840F0806060
:1003F000086000BF6A48006800F000600028F9D07B
:100400006748406820F47C106549486008464068A9
:1004100040F4E81048600846006840F080700860CA
:1004200000BF5F48006800F000700028F9D05C4809
:10043000406820F003005A4948600846406840F090
:100440000200486000BF5648406800F00C000828D1
:10045000F9D10CBD10B5FFF779FF10BD10B55048AC
:10046000006840F001004E49086008464068504965
:1004700008404B494860084600684E4908404849D2
:1004800008600846006820F480200860084640683C
:1004900020F4FE0048600846006820F0A050086084
:1004A0004FF47F0088600020C862FFF7D3FF4FF051
:1004B00000604149086010BDF0B500210020002314
:1004C0000024002200250026354F7F6807F00C012C
:1004D00021B1042908D008294BD10BE0374FDFF8B0
:1004E000E0C0CCF800704AE0364FDFF8D4C0CCF85A
:1004F000007044E02A4F7F6807F47010284F7F682F
:1005000007F48033800C0D2801D0801C00E0062009
:1005100033B92D4F4743DFF8A8C0CCF8007027E06F
:100520001F4FFF6A07F480341D4FFF6A07F00F0763
:100530007A1C44B9234FB7FBF2F74743DFF880C07A
:10054000CCF8007014E0164FFF6AC7F303177D1C48
:10055000134FFF6AC7F30327BE1C1A4FB7FBF5F70B
:100560007743B7FBF2F74743DFF854C0CCF800708D
:1005700005E0124FDFF848C0CCF8007000BF00BFA4
:10058000074F7F68C7F30317DFF840C01CF8071058
:100590000B4F3F68CF40DFF828C0CCF80070F0BDAB
:1005A000001002400020024000F0FEFF440601005F
:1005B0000000FFF0FFFFF6FE08ED00E000127A00F9
:1005C0000C00002040787D0100093D001000002053
:1005D00010B5002807DA0A07140E424A00F00F038C
:1005E0001B1FD45403E00A07130E3F4A135410BDD7
:1005F00010B5044600214FF0006001F0F8F82046E5
:1006000001F0BEF8002010BD10B501211D2000F042
:100610004EFE10BD10B50121344800F0AEFB10BDF8
:1006200010B586B001A800F061FD64210198B0FB0F
:10063000F1F4B4F1807F00D311E024F07F40401E3C
:100640004FF0E02148610F214FF0FF30FFF7C0FF6E
:1006500000204FF0E02188610720086100BF0121E0
:10066000881EFFF7B5FF06B010BD10B545F2555016
:1006700001F056FC062001F056FC40F6FF7001F038
:1006800055FC01F056FC01F059FC10BD00B595B0C9
:100690005022174901A803F023F9022101A802F012
:1006A0002DF815B000BD0EB5114A503207CA8DE8BD
:1006B00007000121684602F02BF90EBD10B502F0CB
:1006C000A7F910BD10B502F017FD10BD1FB5084BFE
:1006D0005C330FCB8DE80F009DE80F0002F086FD24
:1006E0001FBD000018ED00E000E400E00002300053
:1006F000C83900083EB505460C4668A207CA8DE811
:100700000700512D02D0532D1CD10DE051208DF842
:1007100007008DF808401CB957208DF80B0002E047
:1007200058208DF80B000EE053208DF807008DF84F
:1007300008401CB959208DF80B0002E05A208DF8B2
:100740000B0000E000BF00BF0C21684602F096FDE0
:100750003EBDF8B504460E46534800680090E07967
:10076000512811D102226946504802F0FBFF20B106
:1007700000215120FFF7BEFF03E001215120FFF7C8
:10078000B9FFFFF745FD1FE0E07953280BD10021A9
:10079000FFF7B0FF02F052FDFFF73AFD01215320B1
:1007A000FFF7A8FF10E0F2B22146414800F0B4F88C
:1007B0000546E079132807D10120C5EB85113C4A95
:1007C00002EB810181F8FB000020F8BD2DE9F05F0C
:1007D000054689464FF0000A002799F800B0BBF1A2
:1007E000090F02DAFF20BDE8F09F002432E0285D07
:1007F0005A282DD1601C285C5A2829D1A01C285CBD
:10080000801C00F0FF08002607E0A01C3044285C94
:1008100050441FFA80FA701CC6B2A8F10400B0421E
:10082000F3DCA01C3044285C3844C7B2E01C3044E0
:10083000285C00EB07203844C7B2574508D1291976
:100840004246284603F04CF885F800802046CAE767
:10085000601CC4B2ABF10800A042C8DCFF20C2E7B4
:1008600013B5044601A92046FFF7B0FFA0B1E07917
:10087000132807D0EE2808D1207AFF2801D100F0F4
:10088000A4F808E000F0A1F800BF9DF8041020468D
:1008900002F0F4FC00BF00BF00201CBD5A5A0AFF42
:1008A000FFFFFF5101000458343A000800200308FC
:1008B0006C00002070B5044600250FE0C5EB8511E3
:1008C00004EB8100FA2103F032F80020C5EB85111A
:1008D00004EB810181F8FA00681CC5B2082DEDDB3C
:1008E000002084F8E00784F8E107C4F8E40770BD4D
:1008F0000FB400210CE0C1EB81106A4602EB8000CE
:1009000090F8FA0010B1002004B07047481CC1B242
:100910000829F0DB0120F7E72DE9F04105460F46F5
:100920001646FA2E02DD0020BDE8F081002418E012
:10093000C4EB841005EB800090F8FA0078B9C4EBA2
:10094000841105EB81003246394602F0C9FFC4EB41
:10095000841005EB800080F8FA602046E4E7601C14
:10096000C4B2082CE4DB0020DEE710B5044640F2F8
:10097000E46204F1FC01204602F0B2FF002010BD49
:100980000120624981F8E007704700205F4981F843
:10099000E00770475D4890F8E007704770B504467F
:1009A0000D462946204602F038FBFFF7EEFF574878
:1009B00090F8E107401C554981F8E10702F081FFFA
:1009C0005249C1F8E407002070BD0120504981F868
:1009D0000201704700204E4981F8020170474C48DF
:1009E00090F80201704710B5ADF5FB6D0446FFF7B6
:1009F000D1FF20B1012047490870FFF7C6FF4448E6
:100A000090F8010140B1424890F80011FFF728FF2B
:100A100000203F4981F801013E48007830B10128AB
:100A200027D0022817D003286AD139E04FF4FB629F
:100A300036491031684602F053FF34480FC8FFF7BB
:100A400057FF38B9314890F8FA10FFF7A7FF022096
:100A50003049087055E02D49D1F8E4074FF496610C
:100A600002F032FF20B101202A490870FFF78DFF04
:100A700047E0264890F8FB00012803D103202549D0
:100A8000087005E00020234908702048FFF76DFF3B
:100A9000FFF7A0FF02F015FF1C49C1F8E40730E0A2
:100AA0001A49D1F8E40740F6B83102F00DFFB8B1A9
:100AB000164890F8E10703280ADB0020134981F863
:100AC000E1070846FFF751FF0020104981F8FB00BD
:100AD00000201049087002F0F4FE0C49C1F8E40748
:100AE000FFF77DFF58B1FFF775FF0020074981F838
:100AF000FB000846FFF739FF00200649087000E0B8
:100B000000BF00BF00200DF5FB6D10BD6C00002084
:100B1000540800202000002010B50446CC48844230
:100B200008D10121042000F0E9FB0021042000F09D
:100B3000E5FB46E0C748844208D10121082000F0C7
:100B4000DDFB0021082000F0D9FB3AE0C2488442D6
:100B500008D10121102000F0D1FB0021102000F06D
:100B6000CDFB2EE0BD48844208D10121202000F0B9
:100B7000C5FB0021202000F0C1FB22E0B8488442E0
:100B800008D10121402000F0B9FB0021402000F0F5
:100B9000B5FB16E0B348844208D10121802000F063
:100BA000ADFB0021802000F0A9FB0AE0AE488442A2
:100BB00007D10121801500F0A1FB0021A01500F054
:100BC0009DFB10BD10B50121084600F097FB0021E8
:100BD000012000F093FB10BD2DE9F04102460025F5
:100BE0000026002000230024002791F803C00CF009
:100BF0000F0591F803C00CF0100CBCF1000F03D0EE
:100C000091F802C04CEA050591F800C0BCF1000F54
:100C100031D0146800202BE04FF0010C0CFA00F3E7
:100C2000B1F800C00CEA03069E4220D183004FF0C9
:100C30000F0C0CFA03F7BC4305FA03FC4CEA04045E
:100C400091F803C0BCF1280F06D14FF0010C0CFA4B
:100C500000FCC2F814C00AE091F803C0BCF1480FD0
:100C600005D14FF0010C0CFA00FCC2F810C0401C7A
:100C70000828D1D31460B1F800C0BCF1FF0F34DDF7
:100C8000546800202EE000F1080C4FF0010808FA2B
:100C90000CF3B1F800C00CEA03069E4221D1830098
:100CA0004FF00F0C0CFA03F7BC4305FA03FC4CEAB7
:100CB000040491F803C0BCF1280F05D100F1080C21
:100CC00008FA0CF8C2F8148091F803C0BCF1480F80
:100CD00007D100F1080C4FF0010808FA0CF8C2F82F
:100CE0001080401C0828CED35460BDE8F0814FF638
:100CF000FF710180022181700421C170704702469A
:100D0000002093680B400BB1012000E000207047E9
:100D10000146886880B2704702460020D3680B40C5
:100D20000BB1012000E0002070470146C86880B286
:100D3000704701617047416170470AB1016100E08D
:100D400041617047C16070474FF480320A4382614D
:100D50008161826182698269704702460020434B4B
:100D600018684FF68073184040EA021008433F4B62
:100D7000186070473E49C8617047F0B50A460023C5
:100D800000240021002500F00046B6F1004F02D1FA
:100D9000364EF16901E0354E7168C0F3034583B208
:100DA00000F44016B6F5401F08D121F070612F4EB7
:100DB000766826F070662D4F7E6012E000F4801693
:100DC000B6F5801F06D1032606FA05F4A14341F0CB
:100DD000706106E0460D360103FA06F6B14341F0B4
:100DE000706122B1460D360103FA06F6314300F078
:100DF0000046B6F1004F02D11C4EF16101E01B4EDE
:100E00007160F0BD30B500228B071C0F0F2303FA71
:100E100004F2164B08338C1053F824309343134CD0
:100E200008348D1044F8253023468C1053F82430B4
:100E30008C07240F00FA04F423430C4C08348D1063
:100E400044F8253030BD0A49DC31086070470000A5
:100E500000080140000C0140001001400014014056
:100E600000180140001C014000200140000001402A
:100E700000002042FB48006840F00100F94908608A
:100E800008464068F8490840F64948600846006846
:100E9000F6490840F34908600846006820F48020BD
:100EA00008600846406820F4FE0048600846006874
:100EB00020F0A05008604FF47F0088600020C862D6
:100EC0007047E849096821F48031E64A116011460B
:100ED000096821F480211160B0F5803F03D0B0F59E
:100EE000802F0ED106E0DF49096841F48031DD4AE8
:100EF000116007E0DB49096841F4A021D94A11607B
:100F000000E000BF00BF704710B50146002200237B
:100F100000204A11012A02D1D24C236806E0022A9D
:100F200002D1D04C236A01E0CE4C636A01F01F026B
:100F3000012494401C400CB1012000E0002010BDB1
:100F400038B5002000900024002500BF3120FFF7B5
:100F5000DBFF05460098401C00900098B0F5A06F9C
:100F600001D0002DF2D03120FFF7CEFF08B10124CF
:100F700000E00024204638BD01460020B94A106830
:100F800020F0F80040EAC10010607047B8490860DE
:100F9000704702460020B34B586820F4741042EAB0
:100FA00001031843AF4B58607047B149086670475A
:100FB00002460020AB4BD86AAE4B184042EA010310
:100FC0001843A84BD862704701460020A54AD06A52
:100FD00020F0F0000843D062704701460020A14A8B
:100FE000D06A20F470600843D0627047A0498866D8
:100FF0007047014600209B4AD06A20F470400843A5
:10100000D06270479A490867704701460020954AA8
:10101000506820F0030008435060704791484068D2
:1010200000F00C007047014600208E4A506820F006
:10103000F00008435060704701460020894A50681C
:1010400020F4E06008435060704701460020854A64
:10105000506820F4605040EAC1005060704729B1E8
:10106000804A527A02437F4B5A7204E07D4A527A98
:1010700082437C4B5A7270477D49D8310860704773
:1010800001460020774A506820F4404008435060F1
:1010900070477949086070477749091D08607047B3
:1010A0000021704A203211706E4A82F82010012807
:1010B00002D004280AD104E001216A4A20321170CA
:1010C00005E00521674A2032117000E000BF00BF33
:1010D00070476A49086070476249096A0143614A7A
:1010E0001162704765494439086070472DE9F04145
:1010F00000210022002500230026002400278C4622
:10110000DFF86081D8F8048008F00C0121B10429CF
:1011100007D0082959D109E0DFF86481C0F80080C0
:1011200058E0DFF86081C0F8008053E0DFF83481D8
:10113000D8F8048008F47012DFF82881D8F8048009
:1011400008F48035920C0D2A01D0921C00E0062292
:1011500035B9DFF8348102FB08F8C0F8008033E0CD
:10116000DFF80081D8F82C8008F48036DFF8F480AE
:10117000D8F82C8008F00F0808F1010446B9DFF810
:101180000481B8FBF4F808FB02F8C0F800801BE00B
:10119000DFF8D080D8F82C80C8F3031808F10107D5
:1011A000DFF8C080D8F82C80C8F3032808F1020CBF
:1011B000DFF8D080B8FBF7F808FB0CF8B8FBF4F8C0
:1011C00008FB02F8C0F8008004E0DFF8B480C0F843
:1011D000008000BF00BFDFF88C80D8F8048008F0E2
:1011E000F0010909DFF8A48018F80130D0F8008078
:1011F00028FA03F8C0F80480DFF86880D8F8048083
:1012000008F4E061090ADFF8848018F80130D0F8AA
:10121000048028FA03F8C0F80880DFF84880D8F87E
:10122000048008F46051C90ADFF8608018F80130C2
:10123000D0F8048028FA03F8C0F80C80DFF8248086
:10124000D8F8048008F44041890BDFF8448018F88E
:101250000130D0F80C80B8FBF3F8C0F81080BDE87E
:10126000F0810000001002400000FFF0FFFFF6FEDA
:1012700000004242F0FFFEFFC405424280044242A9
:1012800000127A0040787D0100093D002100002015
:101290003100002029B1354A52690243334B5A616B
:1012A00004E0324A52698243304B5A61704729B197
:1012B0002E4A926902432D4B9A6104E02B4A9269AF
:1012C00082432A4B9A61704729B1284AD269024366
:1012D000264BDA6104E0254AD2698243234BDA6166
:1012E000704729B1214A926A0243204B9A6204E076
:1012F0001E4A926A82431D4B9A62704729B11B4A6B
:10130000D2680243194BDA6004E0184AD26882437B
:10131000164BDA60704729B1144A12690243134B25
:101320001A6104E0114A12698243104B1A61704736
:101330000F49086070470F49C86470470B49C8716E
:1013400070470A48406A40F0807008494862704718
:1013500001460020054A92680A400AB1012000E0D7
:101360000020704701498872704700000010024059
:10137000400442420000424210B50446FB48844209
:1013800009D101218803FFF7B9FF00214FF4804004
:10139000FFF7B4FF32E0F648844209D10121480446
:1013A000FFF7B9FF00214FF40030FFF7B4FF25E04D
:1013B000F048844209D101218804FFF7ACFF0021E5
:1013C0004FF48020FFF7A7FF18E0EB48844209D1D3
:1013D0000121C804FFF79FFF00214FF40020FFF711
:1013E0009AFF0BE0E548844208D101210805FFF788
:1013F00092FF00214FF48010FFF78DFF10BD2DE903
:10140000F04786B005460E460024A24600BFA1461E
:101410000027B08900B100BF2F462C8A4CF6FF7020
:101420000440F08804432C82AC894EF6F31004404B
:10143000B08831890843718908430443AC81AC8A80
:101440004FF6FF400440B0890443AC8201A8FFF787
:101450004DFEC648874202D1DDF810A001E0DDF85C
:101460000CA0A88900F4004040B10AEBCA0000EBD0
:101470000A1031684900B0FBF1F807E00AEBCA0036
:1014800000EB0A1031688900B0FBF1F86420B8FB6A
:10149000F0F004012009642101FB1089A88900F4FF
:1014A000004040B1322000EBC900B0FBF1F000F089
:1014B0000700044308E0322000EB09106421B0FB70
:1014C000F1F000F00F0004432C8106B0BDE8F08776
:1014D0004FF41651016000218180C18001810C21EF
:1014E000418100218181704710B502460020108A99
:1014F0004FF2FF0318400B884C8823438C8823430A
:10150000CC8823431843108210BD00210180418004
:101510008180C180704721B1828942F4005282816A
:1015200004E082894DF6FF731A4082817047F0B55E
:101530000346002400260025002040F66A17B94221
:1015400000D100BF1846C1F3421401F01F06012765
:1015500007FA06F5012C01D10C3004E0022C01D170
:10156000103000E014301AB107682F43076002E022
:101570000768AF430760F0BD1AB1838A0B438382CB
:1015800002E0838A8B4383827047028A4FF6F073AE
:101590001A400282028A0A430282704782894FF20D
:1015A000FF731A40828182890A438281704721B188
:1015B000828942F00202828104E082894FF6FD7343
:1015C0001A4082817047028A4FF6DF731A40028206
:1015D000028A0A430282704721B1028A42F48042A1
:1015E000028204E0028A4BF6FF731A4002827047BF
:1015F000C1F308028280704701468888C0F3080062
:101600007047818941F0010181817047028BD2B21C
:101610000283028B42EA012202837047028B02F4AA
:101620007F420283028B0A430283704721B1828A80
:1016300042F02002828204E0828A4FF6DF731A4071
:101640008282704721B1828A42F01002828204E0D5
:10165000828A4FF6EF731A408282704721B1828AE4
:1016600042F00802828204E0828A4FF6F7731A4041
:101670008282704721B1828942F40042828103E074
:101680008289C2F30E028281704721B1828A42F4BC
:101690000062828204E0828A4FF2FF731A408282E3
:1016A0007047828A4FF6FB731A408282828A0A430D
:1016B0008282704721B1828A42F00202828204E073
:1016C000828A4FF6FD731A408282704702460020DC
:1016D000B1F5007F00D100BF13880B400BB1012092
:1016E00000E00020704701F40072B2F5007F00D1E5
:1016F00000BFCA430280704770B502460024002331
:101700000025002040F66A16B14200D100BFC1F3A7
:10171000421501F01F03012606FA03F3012D02D141
:101720009689334006E0022D02D1168A334001E04B
:10173000968A33400C12012606FA04F416883440C7
:1017400013B10CB1012000E0002070BD10B50022E3
:10175000002340F66A14A14200D100BF0A120124FE
:101760009440A3B2DC43048010BD00000038014067
:101770000044004000480040004C00400050004041
:1017800031490143314A1160704770B5002100238F
:101790000F22C47804B32D4C246804F4E064C4F52B
:1017A000E064210AC1F10403CA40447804FA03F159
:1017B0008478144021430901254C0678A15504780A
:1017C00004F01F050124AC4005786D11AD0005F152
:1017D000E025C5F8004109E0047804F01F05012464
:1017E000AC401C4D0678761145F8264070BD1A4A6B
:1017F0000A400243154B1B1F1A60704739B1134A48
:10180000121D12680243114B1B1D1A6006E00F4A9D
:10181000121D126882430D4B1B1D1A60704704286D
:1018200008D14FF0E021096941F004014FF0E022B6
:10183000116107E04FF0E021096921F004014FF048
:10184000E0221161704700000000FA050CED00E095
:1018500000E400E080E100E080FFFF1F10B50446D7
:10186000CE48844208D101218014FFF747FD0021B2
:10187000A014FFF743FD16E0C948844208D10121B6
:101880000014FFF748FD00212014FFF744FD0AE093
:10189000C448844207D10121C013FFF73CFD002159
:1018A000E013FFF738FD10BD10B50022028802F4E6
:1018B00041520B884C8823438C882343CC88234394
:1018C0000C8923434C8923438C892343CC892343AC
:1018D0001A430280838B4FF2FF74234083830B8A69
:1018E000038210BD2DE9F04F85B006460C464FF03F
:1018F000000A02274FF000084FF0010B0025A9460F
:10190000B08B4FF240010840B08302203084B6F81B
:101910001CA0A068022801D100BF59E0A08810B91E
:101920004FF0010B01E04FF0020B9D48864202D1BF
:101930004FF4003501E04FF480259B48C06A2840F1
:10194000C8B19948C06AC0F30335052D03D90F2DDE
:1019500001D2AD1C02E00F2D00D114259248C06ABF
:10196000C0F3031000F101099048B0FBF9F068439F
:101970004FEA400904E06846FFF7B8FBDDF8009045
:10198000E088B0F5007F0AD14FEA192000EB800013
:101990004000A168B0FBF1F0401D85B20BE04FEABA
:1019A0004B10B9FBF0F000EB80004000A168B0FBE9
:1019B000F1F0401D85B20A20B5FBF0F505F00108F5
:1019C000A5EB0800C0F34F074FF6FF7000EA0828A8
:1019D000022F01DBFF2F02DD02274FF00008E08815
:1019E00040EA080038433084A088A1890843618810
:1019F00008432188084340F4006040EA0A0AA6F838
:101A00001CA005B0BDE8F08F0021018041808180DD
:101A1000C180018141818181C1810721018270479B
:101A20000021018041808180C180022181600021EC
:101A30008181704721B1028842F04002028004E0B7
:101A400002884FF6BF731A400280704721B1828B23
:101A500042F48062828304E0828B4FF6FF331A40A7
:101A60008283704730B5002400230C110125A54066
:101A7000ABB21AB185881D43858002E085889D43FD
:101A8000858030BD1AB183880B43838002E0838850
:101A90008B438380704781817047014688897047F6
:101AA0004FF6FF62914204D0028842F480720280B5
:101AB00004E002884FF6FF631A400280704721B1AC
:101AC000828842F00402828004E082884FF6FB7331
:101AD0001A408280704702884FF2FF731A400280DA
:101AE00002880A4302807047018841F480510180D6
:101AF000704721B1028842F40052028004E002885B
:101B00004DF6FF731A4002807047024600200129FB
:101B100001D0108B00E0908A70470146088A704718
:101B2000B1F5804F04D1028842F48042028004E083
:101B300002884BF6FF731A4002807047024600206D
:101B400013890B400BB1012000E000207047CA430D
:101B500002817047F0B502460020002400230025D2
:101B600001F00F070126BE40B4B20B1101269E40C2
:101B7000B3B2968806EA03051689264016B10DB160
:101B8000012000E00020F0BD10B5002201F00F049C
:101B90000123A3409AB2D343038110BD003001401A
:101BA00000380040003C00400010024040787D01B9
:101BB000002044490860091D0860091D0860091DCE
:101BC000086041483F4914310860704700213D4991
:101BD0008279002A3AD00A46126803689A430B4673
:101BE0001A600A1D126803689A430B1D1A60027975
:101BF00011440A6803681A430A60324A08321268BC
:101C000003689A432F4B08331A601A1D1268036841
:101C10009A432C4B0C331A604279102A0ED11A1FAA
:101C2000126803681A43274B08331A601A1D12689A
:101C300003681A43234B0C331A600DE021494279A3
:101C400011440A6803681A430A6005E002791144E6
:101C50000A6803689A430A607047002101600171B5
:101C60000C214171002181717047164910310968BA
:101C70000143144A10321160704701460020114A96
:101C8000143212680A400AB1012000E000207047B7
:101C90000C49143108607047014600200022094BAE
:101CA0001B6803EA0102074B14331B680B4013B196
:101CB0000AB1012000E00020704702491431086099
:101CC0007047000000040140FFFF0F0001684FF65D
:101CD000FE72114001600021016041608160C160BD
:101CE0008D49884208D18C490839496841F00F0173
:101CF000894A083A51608AE087491431884208D1FC
:101D000085490839496841F0F001834A083A516031
:101D10007DE081492831884208D17F4908394968E6
:101D200041F470617C4A083A516070E07A493C3174
:101D3000884208D178490839496841F47041764AA7
:101D4000083A516063E074495031884208D17249C1
:101D50000839496841F470216F4A083A516056E0E9
:101D60006D496431884208D16B490839496841F4AA
:101D70007001694A083A516049E067497831884200
:101D800008D165490839496841F07061624A083AEA
:101D900051603CE06149884206D1011F096841F069
:101DA0000F01021F116032E05C491431884208D1F2
:101DB0005A49091F096841F0F001584A121F116081
:101DC00025E056492831884208D15449091F09683D
:101DD00041F47061514A121F116018E04F493C31C3
:101DE000884208D14D49091F096841F470414B4AA6
:101DF000121F11600BE049495031884207D1474911
:101E0000091F096841F47021444A121F116070478C
:101E100010B50022026847F6F0739A430C6A8B688B
:101E200023430C6923434C6923438C692343CC69C6
:101E300023434C6A23438C6A23431A430260CB68D2
:101E400043600B6883604B68C36010BD0021016074
:101E500041608160C160016141618161C161016274
:101E600041628162704721B1026842F00102026062
:101E700004E002684FF6FE731A40026070471AB120
:101E800003680B43036002E003688B430360704701
:101E9000416070470146486880B2704701460020A3
:101EA000002201F080531BB11C4B083B1A6802E072
:101EB000194B083B1A6802EA01030BB1012000E04C
:101EC0000020704700F0805119B11449091F0860C3
:101ED00002E011490839486070470146002000229D
:101EE00001F080531BB10D4B083B1A6802E00A4B0E
:101EF000083B1A6802EA01030BB1012000E0002050
:101F0000704700F0805119B10449091F086002E0D0
:101F1000014908394860704708000240080402403F
:101F20000E49086070470D49486070470B4988604A
:101F300070474AF6AA200949086070474CF6CC4021
:101F400006490860704701460020044AD2680A40EA
:101F50000AB1012000E0002070470000003000407E
:101F600001460020FE4A106800F038000843106067
:101F70007047FB49096821F00801F94A11601146D0
:101F80000968014311607047F549096821F01001A3
:101F9000F34A116011460968014311607047F14826
:101FA000EF494860F04848607047EE48EC494860A7
:101FB000ED4848607047EA48006940F08000E84911
:101FC00008617047E648006940F08000E449086114
:101FD00070470420E249C96801F0010109B10120FC
:101FE0000EE0DF49C96801F0040109B1022007E0F1
:101FF000DB49C96801F0100109B1032000E00420A9
:10200000704700B502460423FFF7E3FF034603E0F1
:10201000FFF7DFFF0346521E012B01D1002AF7D143
:1020200002B90523184600BD30B5044604254FF417
:102030003020FFF7E6FF0546042D17D1C848006998
:1020400040F00200C649086108464461006940F05A
:10205000400008614FF43020FFF7D3FF0546C04829
:10206000006941F6FD710840BD490861284630BD50
:1020700010B504244FF43020FFF7C3FF0446042CAE
:1020800016D1B748006940F00400B5490861084618
:10209000006940F0400008614FF43020FFF7B1FFC5
:1020A0000446AF48006941F6FB710840AC4908613D
:1020B000204610BD00B502460423FFF78AFF034601
:1020C00003E0FFF786FF0346521E012B01D1002AD1
:1020D000F7D102B90523184600BD10B504244FF40A
:1020E0003020FFF7E7FF0446042C16D19C48006916
:1020F00040F004009A4908610846006940F0400039
:1021000008614FF43020FFF7D5FF0446944800697A
:1021100041F6FB71084092490861204610BD00203D
:102120008F49C96901F0020109B1012000E00020D6
:10213000704730B5A5250424FFF7F1FF00B1002555
:102140004FF43020FFF75DFF0446042C3AD1854858
:1021500083498860844888600846006940F0200010
:1021600008610846006940F0400008614FF43020E3
:10217000FFF747FF0446042C1BD17948006941F65C
:10218000DF710840764908610846006940F0100098
:10219000086176480580E002FFF733FF0446052C0E
:1021A00010D06F48006941F6EF7108406C49086132
:1021B00008E0052C06D06A48006941F6EF71084036
:1021C00067490861204630BD78B506460C460425AF
:1021D00000200090E802FFF714FF0546042D24D1EB
:1021E0005F48006940F001005D4908613480E80201
:1021F000FFF707FF0546042D10D1B01C0090200CFE
:1022000000990880E802FFF7FCFE05465448006983
:1022100041F6FE7108405249086106E050480069E5
:1022200041F6FE7108404E490861284678BD70B5F8
:1022300004460D460426F002FFF7E3FE0646042E90
:1022400011D14748006940F00100454908612580E7
:10225000F002FFF7D6FE06464148006941F6FE71DE
:1022600008403F490861304670BD70B505460E46CE
:102270000424E002FFF7C5FE0446042C17D13948B8
:1022800037498860384888600846006940F0100087
:1022900008612E80E002FFF7B4FE0446052C06D04C
:1022A0002F48006941F6EF7108402D49086120462A
:1022B00070BD2DE9F04304464FF6FF763746B04631
:1022C000B1460425E443E6B2C4F30727C4F3074844
:1022D0004FEA1469E802FFF794FE0546042D49D140
:1022E00020481F498860204888600846006940F0FF
:1022F00010000861FF2E06D01C4808300680E80256
:10230000FFF77FFE0546042D08D1FF2F06D01748A2
:102310000A300780E802FFF774FE0546042D0AD153
:10232000B8F1FF0F07D011480C30A0F80080E80288
:10233000FFF767FE0546042D0AD1B9F1FF0F07D05C
:102340000A480E30A0F80090E802FFF75AFE054652
:10235000052D0FD00248006941F6EF71084007E0F3
:102360000020024023016745AB89EFCD00F8FF1F35
:10237000664908612846BDE8F08330B50546042467
:102380004FF43020FFF73DFE0446042C41D1604855
:102390005E4988605F4888600846006940F0200018
:1023A00008610846006940F0400008614FF43020A1
:1023B000FFF727FE0446042C22D15448006941F659
:1023C000DF710840514908610846006940F010007B
:1023D00008611DB100205049088002E0A5204E4947
:1023E00008804FF43020FFF70CFE0446052C10D077
:1023F0004648006941F6EF7108404449086108E029
:10240000052C06D04148006941F6DF7108403F497C
:102410000861204630BDF0B505460E461746042437
:102420003B483A4988603B488860E002FFF7E9FD95
:102430000446042C19D13548006940F01000334996
:10244000086147F0F800304328433349891C08806D
:10245000E002FFF7D6FD0446052C06D02B480069A4
:1024600041F6EF710840294908612046F0BD274830
:10247000C069800870472548006A704700202349DA
:10248000096801F0200109B1012000E00020704737
:1024900029B11E4A126902431C4B1A6104E01B4A0F
:1024A00012698243194B1A617047014600200129C5
:1024B00008D1164AD26902F001020AB1012008E0EF
:1024C000002006E0114AD2680A400AB1012000E06B
:1024D000002070470D49C860704704200B49C96847
:1024E00001F0010109B101200EE00849C96801F0BD
:1024F000040109B1022007E00449C96801F0100194
:1025000009B1032000E004207047000000200240D1
:1025100023016745AB89EFCD00F8FF1F06488047D0
:1025200006480047FEE7FEE7FEE7FEE7FEE7FEE7B8
:10253000FEE7FEE7FEE7FEE75D0400085101000844
:10254000092001E0411E88B20028FBDC704700B57D
:102550000246134603E0FFF7F3FF581E83B2002B39
:10256000F9DC00BD42F2283001E0411E88B20028AB
:10257000FBDC704700B50246134603E0FFF7F2FFAD
:10258000581E83B2002BF9DC00BD0000F8B50646EA
:102590000C461546F0B28DF80000E0B28DF801004F
:1025A000E8B28DF8020001208DF803006846FFF7BD
:1025B000ECF8F8BD70B506460C4620213046FFF712
:1025C00085F890B140F225513046FFF7BFF830460C
:1025D000FFF712F8C5B2AF4850F8240028B1AD4853
:1025E00050F8242029462046904770BD70B540F22F
:1025F0002441A948FFF780F898B10021A748FFF7C8
:1026000032FCA648FFF746FC04464FF47020FFF763
:1026100059FCFF21A148FFF73BFC01219F48FFF730
:1026200022FC9D480588001D0588C4F1FF019C48D7
:1026300000F023FF70BD10B54FF40030FFF761FCD0
:102640004FF40020FFF75DFC00219448FFF70BFCDE
:102650009248FFF71FFC0446FF219048FFF718FC43
:1026600001218E48FFF7FFFB21468D4800F005FF52
:1026700010BD10B502218B48FFF79CFF10BD70B54F
:1026800004460D4629462046FEF7B2FF00BF8021D2
:102690002046FFF71BF80028F9D070BD70B505463D
:1026A0000C46A1B22846FEF7A3FF00BF80212846B2
:1026B000FFF70CF80028F9D070BD2DE9F04107466E
:1026C0000D461646002405E0295D3846FFF7D7FF82
:1026D000601CC4B2B442F7DBBDE8F08170B50446BB
:1026E0000D46E1B26F48FEF783FF00BF80216D48C1
:1026F000FEF7ECFF0028F9D0204670BD70B59CB005
:1027000005460E46002400BFBDE004EB840005EB47
:10271000C001282201A801F0E3F85F49029888422D
:1027200004D101210898FEF7C2FD03E001210898B9
:10273000FEF7CAFD9DF80410564A0A9842F8210097
:10274000BDF81000ADF8680018208DF86B0003206C
:102750008DF86A001AA90398FEF73EFABDF8180032
:10276000ADF8680048208DF86B001AA90598FEF7AF
:1027700033FA079816900020ADF85C00ADF85E00C3
:10278000ADF86000ADF864000C20ADF8620016A949
:102790000298FEF734FE0A98B8B1012240F22441B3
:1027A0000298FEF7C4FE9DF824008DF86C0001200D
:1027B0008DF86D008DF86E008DF86F001BA8FEF788
:1027C000E4FF10210298FEF78EFF334902988842F9
:1027D00053D101210846FEF75DFD3048FFF776FA38
:1027E0002D48001D0B902E480C9000200D90FF20CE
:1027F0000E9000200F9080201090002011901290D9
:10280000202013900020149015900BA92348FFF767
:10281000FFFA012202212148FFF731FB01220821A2
:102820001E481430FFF72BFB012240211A48FEF707
:10283000A3FE01211948FFF716FB4FF4A060FEF735
:102840009FFF0F208DF86C0001208DF86D00002097
:102850008DF86E0001208DF86F001BA8FEF795FF24
:102860000E208DF86C0001208DF86D008DF86E0043
:102870008DF86F001BA8FEF788FF01210298FEF774
:102880004AFE601C84B2B442FFF63FAF00201CB089
:1028900070BD000044000020003801405800024094
:1028A000570900200044004010B5044604EB4400E2
:1028B000564901EB8000008970B104EB44020B46DD
:1028C00003EB8202118904EB440203EB820250689D
:1028D000FEF72FFA002010BD0120FCE710B50446DA
:1028E00004EB4400494901EB8000008970B104EB1E
:1028F00044020B4603EB8202118904EB440203EB12
:1029000082025068FEF717FA002010BD0120FCE794
:102910007FB505460E4618213C4801F008F8002412
:102920002FE004EB440005EB8002D2E9001092682E
:10293000CDE9010200919DF8000000EB4000334911
:1029400001EB80009DE80E000EC0BDF80800ADF858
:102950000C0010208DF80F0003208DF80E0003A945
:102960000198FEF739F99DF80A0020B99DF800009A
:10297000FFF7B4FF03E09DF80000FFF795FF601C30
:10298000C4B2B442CDDB002004B070BD10B5044623
:1029900004EB44021D4B03EB8202118904EB440259
:1029A00003EB82025068FEF7B7F908B9012010BDA9
:1029B0000020FCE710B5044604EB4400134901EB8A
:1029C0008000008900B32046FFF7E0FF68B104EB08
:1029D00044020E4B03EB8202118904EB440203EB29
:1029E00082025068FEF7A5F90CE004EB4402074BA5
:1029F00003EB8202118904EB440203EB820250686C
:102A0000FEF799F9002010BD0020FCE7580A0020CD
:102A100000B587B001210803FEF749FCE020ADF8BE
:102A2000180018208DF81B0003208DF81A0006A945
:102A30003048FEF7D1F80020ADF804004FF4827062
:102A4000ADF806000020ADF80800ADF80A00ADF8BA
:102A50000C004FF40070ADF80E001820ADF8100017
:102A60000020ADF812000720ADF8140001A922489B
:102A7000FEF71AFF01212048FEF7DCFF07B000BD7A
:102A800010B504461C4800884FF6C77108401A4923
:102A90000880084600882043088001211648FEF778
:102AA000C9FF10BD70B50546002405E0601CC4B226
:102AB000C82C01DD002070BD02210F48FFF73EF851
:102AC0000028F3D029460C48FEF7E5FF002405E076
:102AD000601CC4B2C82C01DD0020ECE701210648CF
:102AE000FFF72CF80028F3D00348FEF7D6FFC0B25A
:102AF000E1E7000000080140003001401FB501215E
:102B00001820FEF7D4FB10208DF80F0003208DF85D
:102B10000E001020ADF80C0003A9FE48FEF75CF88B
:102B20001021FC48FEF705F92020ADF80C0003A9A0
:102B3000F848FEF751F80120ADF80C0003A9F6485B
:102B4000FEF74AF80420ADF80C0003A9F248FEF79E
:102B500043F80220ADF80C0028208DF80F0003A9DF
:102B6000ED48FEF739F801210846FEF74BF907203A
:102B70008DF8080000208DF809008DF80A0001206A
:102B80008DF80B0002A8FEF700FE02200090002046
:102B90008DF8040008208DF8050001208DF806004E
:102BA0006846FFF713F80220FFF787F81FBD70B5DE
:102BB00004462046FFF776FF0546284670BD0146CD
:102BC00006E0002001E0421C90B2B0F5FA7FFADB8B
:102BD0000A00A1F10101F4D1704710B50421CE48DB
:102BE000FEF7A9F8C820FFF7EAFF0421CA48FEF75C
:102BF000A0F84FF4FA70FFF7E2FF10BD10B50446DD
:102C000014B1012C0AD104E01021C248FEF793F858
:102C100005E01021BF48FEF78CF800E000BF00BFC0
:102C200010BD10B5044614B1012C12D108E02021CA
:102C3000B848FEF780F80121B748FEF77AF809E0B6
:102C40002021B448FEF775F80121B348FEF773F868
:102C500000E000BF00BF10BD016811B1AF4A0168BC
:102C60001160416811B1AD4A41685160816811B18C
:102C7000AA4A81689160C16811B1A84AC168D1604F
:102C8000704770B504460D46A44881680020884707
:102C900044F08000A14A11688847A048016828468E
:102CA00088479E4881680120884770BD70B50446FA
:102CB0009A4881680020884704F07F00974A11688D
:102CC000884796484168FF208847054693488168B1
:102CD00001208847284670BD70B505460120FFF7E2
:102CE000E5FF044604F0F8042C4321460120FFF7D9
:102CF000C8FF70BD70B505460120FFF7D7FF044639
:102D000004F07F042C4321460120FFF7BAFF70BD79
:102D100010B5834890F845100620FFF7B2FF8048B1
:102D200090F846100720FFF7ACFF7D4890F8471059
:102D30000820FFF7A6FF10BD10B5044687214D20DF
:102D4000FFF79FFF7748015D0920FFF79AFF10BD4D
:102D500070B504463120FFF7A9FF054605F0F800DD
:102D600040EA040529463120FFF78BFF70BD70B59E
:102D700004460320FFF7ECFF1E20FFF797FF0546F0
:102D8000284664F31F10C5B229461E20FFF779FFBD
:102D900070BD70B504461D20FFF788FF054605F09D
:102DA000F10040EA4400C5B229461D20FFF769FF43
:102DB00070BD70B504461E20FFF778FF054605F08C
:102DC000FB0040EA8400C5B229461E20FFF759FFE8
:102DD00070BD70B504461D20FFF768FF0546284604
:102DE00064F31F10C5B229461D20FFF74AFF70BDCE
:102DF00070B504461D20FFF759FF054605F0FE009B
:102E000040EA040529461D20FFF73BFF70BD38B599
:102E100004461E20FFF74AFF8DF800001F20FFF731
:102E200045FF8DF801009DF8000000F0FC00032133
:102E300001EA14210843C0B28DF80000E0B28DF819
:102E400001009DF800101E20FFF71BFF9DF80110E8
:102E50001F20FFF716FF38BD10B50446214622207B
:102E6000FFF70FFF10BD38B50446200A8DF80000AB
:102E7000E0B28DF801009DF800102020FFF701FF5F
:102E80009DF801102120FFF7FCFE38BD70B5044607
:102E90002620FFF70BFF054605F0F70040EAC400C7
:102EA000C5B229462620FFF7ECFE70BD10B54220C2
:102EB000FFF7FCFE0446204610BD70B50446052C05
:102EC00001DC204600E0052004460120FFF704FF56
:102ED000022C01D0032C04D100212620FFF7D1FEC3
:102EE00003E008212620FFF7CCFE022C03D0042C9F
:102EF00001D0052C1DD102213620FFF7C2FE7F2113
:102F00003A20FFF7BEFE3120FFF7D0FE054645F020
:102F1000010509E000100140000C0140700A00208A
:102F2000403A0008383A000829463120FFF7A9FE48
:102F300015E003213620FFF7A4FE3120FFF7B6FE8F
:102F4000054625F0010529463120FFF79AFE40216C
:102F50002F20FFF796FE00213020FFF792FE04EBB2
:102F600044019E4A505CFFF734FF04EB44019B4A46
:102F700011444878FFF7FBFE04EB4401974A1144E3
:102F80008878FFF706FF70BD10B50120FFF7A4FE9B
:102F90009F211120FFF775FEFF212420FFF771FE0E
:102FA00000214020FFF76DFE00214120FFF769FE60
:102FB0000520FFF791FE8A48C1680020884710BDB0
:102FC00010B50020FFF788FE8020FFF793FE012058
:102FD000FFF782FE00214020FFF753FE0021412031
:102FE000FFF74FFEFFF794FE0720FFF7A5FE022034
:102FF000FFF763FF0120FFF7DCFE0020FFF7F8FE7C
:10300000FF20FFF729FF40F2FF30FFF700FF01200C
:10301000FFF73CFFFFF7B8FF10BD70B504460D4643
:103020006F48C168012088470120FFF755FE002145
:103030002420FFF726FEF7211120FFF722FEE9B238
:103040002220FFF71EFE00210E20FFF71AFE0021AE
:103050000D20FFF716FE624881680020884760480F
:10306000016880208847002606E020785C4A1168C5
:103070008847641C701C86B2AE42F6DB58488168F3
:103080000120884740210846FFF7FBFD0021412031
:10309000FFF7F7FD0320FFF71FFE70BD10B50120FD
:1030A000FFF71AFEFA211120FFF7EBFD80214020E7
:1030B000FFF7E7FD00214120FFF7E3FD0720FFF7C1
:1030C0000BFE4748C1680020884710BD10B501209D
:1030D000FFF702FEFF211120FFF7D3FD0021402062
:1030E000FFF7CFFD00214120FFF7CBFD0020FFF7C8
:1030F000F3FD10BD704770471FB53A4B0FCB8DE8FD
:103100000F00FFF7FBFC6846FFF7A6FDFFF765FD24
:10311000FFF756FFFFF7CAFE122802D1FFF7EAFFBA
:1031200001E0FFF7E8FF1FBD70B500251220FFF793
:10313000BDFD044604F04000402832D11E20FFF7B8
:10314000B5FD064606F00400042827D100210D2015
:10315000FFF797FD1320FFF7A9FD234981F8000130
:10316000012081F801011E488168002088471C4821
:1031700001680020884700BF07E019484168FF2028
:10318000884719494855681CC5B2174890F800018E
:10319000A842F2DC1248816801208847FFF7F4FE5C
:1031A00017E004F00800082804D1FDF7E9FBFFF759
:1031B000EBFE0EE004F00400042808D104F0010046
:1031C00010B1FFF7E1FE04E0FFF780FF01E0FFF739
:1031D000DBFEFF211220FFF754FD70BDA03A00086E
:1031E000700A0020B43A0008540800201FB582B0CD
:1031F000BE4802A91EC91EC0BDF81400ADF80400E7
:1032000010208DF8070003208DF8060001A904980E
:10321000FDF7E2FCBDF814100498FDF78AFDBDF837
:103220000C00ADF8040001A90298FDF7D5FCBDF82B
:103230000C100298FDF77DFD06B010BD10B5AB4A2D
:1032400091881068FDF777FD4FF4A070FFF792F9B1
:10325000A64A91881068FDF76CFD10BD10B5A34A11
:1032600091899068FDF767FD40F6AC50FFF782F951
:103270009E4A91899068FDF75CFD10BD70B50446CB
:103280000D462A4621469A48FFF717FA70BD38B511
:1032900098A00068009000F014FB04461420FFF78B
:1032A00069F900209449087003216846FFF7E6FF9A
:1032B00001209249087021E04FF47A71204600F015
:1032C00003FB18B100208D49087018E08A48007887
:1032D00001280DD161208DF8000001216846FFF71B
:1032E000CDFF01208549087002208349087005E060
:1032F00081480078032801D1012038BDDCE700BFF8
:103300000020FAE73EB57EA207CA8DE80700FFF766
:10331000BEFF012819D108216846FFF7AFFF00F072
:10332000D0FA0446012075490870002072490870DF
:1033300004E071480078012800D13EBD4FF47A7155
:10334000204600F0C1FA0028F3D0FFF777FF0020F5
:10335000F3E702460020704770B503466B4890F8CB
:103360000001012801D1002070BD69480068FE28D5
:1033700067DA674805680068401C654E306063483E
:1033800043553046006802285EDB62480078A0B9E9
:1033900030460068401E5D4D285CA52809D13046A6
:1033A0000068801E285CA52803D10120594D287093
:1033B0004AE00020564D286046E056480078012833
:1033C00042D153480068032804D150488078524DB8
:1033D000287039E04E4805684F480078801C8542C7
:1033E00032D10022002106E0484D881C285C1044A0
:1033F00082B2481CC1B248480078801E8842F3DC83
:1034000043480068801E414D2C5C41480068401EC6
:10341000285C00EB042084B2A24207D13C4800782B
:1034200085F8FF00012085F8000104E03B480068B2
:10343000401C3A4D28600020354D2860354D2870DD
:1034400002E00020324D286000208DE7024604296A
:1034500001DA0020704710780D280CD150780A2826
:1034600009D1881E105C0D2805D1481E105C0A2861
:1034700001D10120EEE70020ECE770B505460C46CF
:1034800000261E480078012825D1012C06D1287875
:1034900061281CD101201849087018E0032C08D1BC
:1034A0001FA1284600F060FA88B90320124908706D
:1034B0000DE0E1B22846FFF7C9FF012807D119A1A5
:1034C000284600F03FFA10B101200B490870002097
:1034D0000A49087007E0002603E0A85DFFF73CFFFB
:1034E000761CA642F9DB002070BD0000800A002097
:1034F000003801402B2B2B005000002051000020F1
:1035000041542B52454C440D00000000900A00200D
:103510005400002058000020590000204C000020DA
:103520002B6F6B002B4F4B3D7265626F6F74696E32
:10353000670000001FB50820ADF80C0048208DF88A
:103540000F0003208DF80E0003A92948FDF744FB66
:1035500003210020FDF756FC09208DF8080000200B
:103560008DF809008DF80A0001208DF80B0002A8E3
:10357000FEF70BF90820009000208DF804000C20C5
:103580008DF8050001208DF806006846FEF71EFB49
:103590000820FEF792FB1FBD10B500F092F9154907
:1035A00008600120087110BD10B51248007901288B
:1035B0001CD11049086840F6B83100F085F9A8B16F
:1035C00008210B48FDF79BFB18B9022009494871F7
:1035D00002E001200749487100BF08210448FDF7B7
:1035E0008EFB0028F9D000200249087110BD0000B0
:1035F000000801405C0000202DE9F04105460E4620
:10360000174600240DE056F8241005EB8400FEF761
:10361000DBFD042804D0FEF7CEFC0020BDE8F081DD
:10362000641CBC42EFD30120F8E72DE9F0410546C8
:103630000E46174600240DE036F8141005EB440042
:10364000FEF7F5FD042804D0FEF7B5FC0020BDE828
:10365000F081641CBC42EFD30120F8E770B503464B
:103660000C4604FB0231A1F10065EE0AA3F10065EE
:10367000B6EBD52F05D0CD1A022606EBD525E8B23C
:1036800004E0CD1A012606EBD525E8B270BD02464E
:1036900009B900207047B2F1006F02D3434882425B
:1036A00001D30020F6E75018404B984201D3002088
:1036B000F0E702F0010008B10020EBE70120E9E7A4
:1036C0002DE9F0470646894617461D4639463046DD
:1036D000FFF7DDFF10B90020BDE8F0872A46394624
:1036E0003046FFF7BBFF8046FEF759FC3520FEF75A
:1036F000F1FE00240CE04FF4006101FB0460FEF7D2
:1037000093FC042803D0FEF756FC0020E4E7641C79
:103710004445F0D3022D02D0042D12D108E03A46E0
:1037200049463046FFF781FF08B90020D4E709E099
:103730003A4649463046FFF75FFF08B90020CBE71D
:1037400000E000BF00BFFEF736FC0120C4E770B503
:1037500004460D4616460423324629462046FFF706
:10376000AFFF70BD70B504460D46164602233246C3
:1037700029462046FFF7A4FF70BD10B50346002080
:1037800004E053F8204041F82040401C9042F8D318
:1037900010BD10B50346002004E033F8104021F8B6
:1037A0001040401C9042F8D310BD0000C4FF030835
:1037B0000FB470B505460E46002400BF22E004EBAE
:1037C0008400384951F83000D8B937480068284497
:1037D00004EB8401334A42F8310004EB84001146C3
:1037E00001EBC000466004EB840102EBC10101F172
:1037F0000800202206A900F073F8012070BC5DF8D3
:1038000014FB641C062CDADB0020F7E770B58EB0E1
:1038100005460E4614460694182208A9684600F08C
:103820005FF831462846DDE90623FFF7C1FF0EB0F9
:1038300070BD2DE9FF41054600241B48056000BF0F
:103840002CE004EB8400174951F8300028B304EB56
:10385000840051F83000A8421FD204EB840001EB31
:10386000C000D0E907238169406A8DE80E0003900B
:1038700004EB84000B4901EBC00000F1080604EBE7
:10388000840001EBC000476896E80F00B8470020AD
:1038900004EB8401034A42F83100641C062CD0DB9F
:1038A000BDE8FF81940B00206400002010B50B4898
:1038B00000680A300949086008460068FFF7B9FF48
:1038C00010BD064800687047024604480068801A28
:1038D000884201D9012070470020FCE768000020E1
:1038E00010B5431A934209D28318881803E010F8E0
:1038F000011D03F8011D521EF9D210BD40EA01035B
:103900009B0703D009E008C9121F08C0042AFAD295
:1039100003E011F8013B00F8013B521EF9D210BD43
:10392000D2B201E000F8012B491EFBD27047002201
:10393000F6E710B513460A4604461946FFF7F0FFAE
:10394000204610BD30B505462A460B4612F8010B3D
:1039500013F8014B08B1A042F8D01CB1002802D0E6
:103960006D1CF1E7284630BD10B5002200E0521C66
:10397000835C8C5CA34201D1002BF8D1D8B2E1B2B8
:10398000401A10BD064C074D06E0E06840F0010308
:1039900094E8070098471034AC42F6D3FCF7DCFB00
:1039A000C43A0008E43A000802E008C8121F08C13F
:1039B000002AFAD170477047002001E001C1121FB0
:1039C000002AFBD1704700000100000000380140D0
:1039D000000801400002000000080140000400004F
:1039E00000C2010000400000250000005333000821
:1039F00002000000004400400008014004000000F4
:103A0000000801400800000000C2010000000200A0
:103A1000260000000000000000000000000C014033
:103A20008000010000100140000200000008014079
:103A300000010000010001008080808386898C8F56
:103A400066800066C000670000674000678000670E
:103A5000C00068000068400068800068C00069001D
:103A60000069400069800069C0006A00006A400087
:103A70006A80006AC0006B00006B40006B80006BC6
:103A8000C0006C00006C40006C80006CC0006D00D9
:103A9000006D40006D80006DC0006E00006E400043
:103AA000070C01080B01090B0108080209080209AB
:103AB00007020000AF2B0008AF2B0008FD2B000809
:103AC000232C0008E43A0008000000206C000000ED
:103AD000A8390008503B00086C0000201C1C0000A6
:103AE000B8390008000000000000000000000000DD
:103AF00000A24A04000000000000000001020304CC
:103B00000607080900000000000102030401020387
:103B1000040607080902040608000000000000006F
:103B20000000000000000000000000000000000095
:103B30000000000000000000000000000000000085
:103B40000000000000000000000000000000000075
:04000005080001519D
:00000001FF
